{
  "contractName": "PixelCharacterGeneratorV2",
  "abi": [
    {
      "inputs": [],
      "stateMutability": "nonpayable",
      "type": "constructor"
    },
    {
      "anonymous": false,
      "inputs": [
        {
          "indexed": true,
          "internalType": "address",
          "name": "owner",
          "type": "address"
        },
        {
          "indexed": true,
          "internalType": "address",
          "name": "approved",
          "type": "address"
        },
        {
          "indexed": true,
          "internalType": "uint256",
          "name": "tokenId",
          "type": "uint256"
        }
      ],
      "name": "Approval",
      "type": "event"
    },
    {
      "anonymous": false,
      "inputs": [
        {
          "indexed": true,
          "internalType": "address",
          "name": "owner",
          "type": "address"
        },
        {
          "indexed": true,
          "internalType": "address",
          "name": "operator",
          "type": "address"
        },
        {
          "indexed": false,
          "internalType": "bool",
          "name": "approved",
          "type": "bool"
        }
      ],
      "name": "ApprovalForAll",
      "type": "event"
    },
    {
      "anonymous": false,
      "inputs": [
        {
          "indexed": true,
          "internalType": "bytes32",
          "name": "role",
          "type": "bytes32"
        },
        {
          "indexed": true,
          "internalType": "bytes32",
          "name": "previousAdminRole",
          "type": "bytes32"
        },
        {
          "indexed": true,
          "internalType": "bytes32",
          "name": "newAdminRole",
          "type": "bytes32"
        }
      ],
      "name": "RoleAdminChanged",
      "type": "event"
    },
    {
      "anonymous": false,
      "inputs": [
        {
          "indexed": true,
          "internalType": "bytes32",
          "name": "role",
          "type": "bytes32"
        },
        {
          "indexed": true,
          "internalType": "address",
          "name": "account",
          "type": "address"
        },
        {
          "indexed": true,
          "internalType": "address",
          "name": "sender",
          "type": "address"
        }
      ],
      "name": "RoleGranted",
      "type": "event"
    },
    {
      "anonymous": false,
      "inputs": [
        {
          "indexed": true,
          "internalType": "bytes32",
          "name": "role",
          "type": "bytes32"
        },
        {
          "indexed": true,
          "internalType": "address",
          "name": "account",
          "type": "address"
        },
        {
          "indexed": true,
          "internalType": "address",
          "name": "sender",
          "type": "address"
        }
      ],
      "name": "RoleRevoked",
      "type": "event"
    },
    {
      "anonymous": false,
      "inputs": [
        {
          "indexed": true,
          "internalType": "address",
          "name": "from",
          "type": "address"
        },
        {
          "indexed": true,
          "internalType": "address",
          "name": "to",
          "type": "address"
        },
        {
          "indexed": true,
          "internalType": "uint256",
          "name": "tokenId",
          "type": "uint256"
        }
      ],
      "name": "Transfer",
      "type": "event"
    },
    {
      "inputs": [],
      "name": "DEFAULT_ADMIN_ROLE",
      "outputs": [
        {
          "internalType": "bytes32",
          "name": "",
          "type": "bytes32"
        }
      ],
      "stateMutability": "view",
      "type": "function",
      "constant": true
    },
    {
      "inputs": [],
      "name": "MINTER_ROLE",
      "outputs": [
        {
          "internalType": "bytes32",
          "name": "",
          "type": "bytes32"
        }
      ],
      "stateMutability": "view",
      "type": "function",
      "constant": true
    },
    {
      "inputs": [
        {
          "internalType": "address",
          "name": "to",
          "type": "address"
        },
        {
          "internalType": "uint256",
          "name": "tokenId",
          "type": "uint256"
        }
      ],
      "name": "approve",
      "outputs": [],
      "stateMutability": "nonpayable",
      "type": "function"
    },
    {
      "inputs": [
        {
          "internalType": "address",
          "name": "owner",
          "type": "address"
        }
      ],
      "name": "balanceOf",
      "outputs": [
        {
          "internalType": "uint256",
          "name": "",
          "type": "uint256"
        }
      ],
      "stateMutability": "view",
      "type": "function",
      "constant": true
    },
    {
      "inputs": [],
      "name": "baseURI",
      "outputs": [
        {
          "internalType": "string",
          "name": "",
          "type": "string"
        }
      ],
      "stateMutability": "view",
      "type": "function",
      "constant": true
    },
    {
      "inputs": [
        {
          "internalType": "uint256",
          "name": "tokenId",
          "type": "uint256"
        }
      ],
      "name": "burn",
      "outputs": [],
      "stateMutability": "nonpayable",
      "type": "function"
    },
    {
      "inputs": [
        {
          "internalType": "uint256",
          "name": "tokenId",
          "type": "uint256"
        }
      ],
      "name": "getApproved",
      "outputs": [
        {
          "internalType": "address",
          "name": "",
          "type": "address"
        }
      ],
      "stateMutability": "view",
      "type": "function",
      "constant": true
    },
    {
      "inputs": [
        {
          "internalType": "bytes32",
          "name": "role",
          "type": "bytes32"
        }
      ],
      "name": "getRoleAdmin",
      "outputs": [
        {
          "internalType": "bytes32",
          "name": "",
          "type": "bytes32"
        }
      ],
      "stateMutability": "view",
      "type": "function",
      "constant": true
    },
    {
      "inputs": [
        {
          "internalType": "bytes32",
          "name": "role",
          "type": "bytes32"
        },
        {
          "internalType": "uint256",
          "name": "index",
          "type": "uint256"
        }
      ],
      "name": "getRoleMember",
      "outputs": [
        {
          "internalType": "address",
          "name": "",
          "type": "address"
        }
      ],
      "stateMutability": "view",
      "type": "function",
      "constant": true
    },
    {
      "inputs": [
        {
          "internalType": "bytes32",
          "name": "role",
          "type": "bytes32"
        }
      ],
      "name": "getRoleMemberCount",
      "outputs": [
        {
          "internalType": "uint256",
          "name": "",
          "type": "uint256"
        }
      ],
      "stateMutability": "view",
      "type": "function",
      "constant": true
    },
    {
      "inputs": [
        {
          "internalType": "bytes32",
          "name": "role",
          "type": "bytes32"
        },
        {
          "internalType": "address",
          "name": "account",
          "type": "address"
        }
      ],
      "name": "grantRole",
      "outputs": [],
      "stateMutability": "nonpayable",
      "type": "function"
    },
    {
      "inputs": [
        {
          "internalType": "bytes32",
          "name": "role",
          "type": "bytes32"
        },
        {
          "internalType": "address",
          "name": "account",
          "type": "address"
        }
      ],
      "name": "hasRole",
      "outputs": [
        {
          "internalType": "bool",
          "name": "",
          "type": "bool"
        }
      ],
      "stateMutability": "view",
      "type": "function",
      "constant": true
    },
    {
      "inputs": [
        {
          "internalType": "address",
          "name": "owner",
          "type": "address"
        },
        {
          "internalType": "address",
          "name": "operator",
          "type": "address"
        }
      ],
      "name": "isApprovedForAll",
      "outputs": [
        {
          "internalType": "bool",
          "name": "",
          "type": "bool"
        }
      ],
      "stateMutability": "view",
      "type": "function",
      "constant": true
    },
    {
      "inputs": [],
      "name": "name",
      "outputs": [
        {
          "internalType": "string",
          "name": "",
          "type": "string"
        }
      ],
      "stateMutability": "view",
      "type": "function",
      "constant": true
    },
    {
      "inputs": [
        {
          "internalType": "uint256",
          "name": "tokenId",
          "type": "uint256"
        }
      ],
      "name": "ownerOf",
      "outputs": [
        {
          "internalType": "address",
          "name": "",
          "type": "address"
        }
      ],
      "stateMutability": "view",
      "type": "function",
      "constant": true
    },
    {
      "inputs": [
        {
          "internalType": "bytes32",
          "name": "role",
          "type": "bytes32"
        },
        {
          "internalType": "address",
          "name": "account",
          "type": "address"
        }
      ],
      "name": "renounceRole",
      "outputs": [],
      "stateMutability": "nonpayable",
      "type": "function"
    },
    {
      "inputs": [
        {
          "internalType": "bytes32",
          "name": "role",
          "type": "bytes32"
        },
        {
          "internalType": "address",
          "name": "account",
          "type": "address"
        }
      ],
      "name": "revokeRole",
      "outputs": [],
      "stateMutability": "nonpayable",
      "type": "function"
    },
    {
      "inputs": [
        {
          "internalType": "address",
          "name": "from",
          "type": "address"
        },
        {
          "internalType": "address",
          "name": "to",
          "type": "address"
        },
        {
          "internalType": "uint256",
          "name": "tokenId",
          "type": "uint256"
        }
      ],
      "name": "safeTransferFrom",
      "outputs": [],
      "stateMutability": "nonpayable",
      "type": "function"
    },
    {
      "inputs": [
        {
          "internalType": "address",
          "name": "from",
          "type": "address"
        },
        {
          "internalType": "address",
          "name": "to",
          "type": "address"
        },
        {
          "internalType": "uint256",
          "name": "tokenId",
          "type": "uint256"
        },
        {
          "internalType": "bytes",
          "name": "_data",
          "type": "bytes"
        }
      ],
      "name": "safeTransferFrom",
      "outputs": [],
      "stateMutability": "nonpayable",
      "type": "function"
    },
    {
      "inputs": [
        {
          "internalType": "address",
          "name": "operator",
          "type": "address"
        },
        {
          "internalType": "bool",
          "name": "approved",
          "type": "bool"
        }
      ],
      "name": "setApprovalForAll",
      "outputs": [],
      "stateMutability": "nonpayable",
      "type": "function"
    },
    {
      "inputs": [
        {
          "internalType": "bytes4",
          "name": "interfaceId",
          "type": "bytes4"
        }
      ],
      "name": "supportsInterface",
      "outputs": [
        {
          "internalType": "bool",
          "name": "",
          "type": "bool"
        }
      ],
      "stateMutability": "view",
      "type": "function",
      "constant": true
    },
    {
      "inputs": [],
      "name": "symbol",
      "outputs": [
        {
          "internalType": "string",
          "name": "",
          "type": "string"
        }
      ],
      "stateMutability": "view",
      "type": "function",
      "constant": true
    },
    {
      "inputs": [
        {
          "internalType": "uint256",
          "name": "index",
          "type": "uint256"
        }
      ],
      "name": "tokenByIndex",
      "outputs": [
        {
          "internalType": "uint256",
          "name": "",
          "type": "uint256"
        }
      ],
      "stateMutability": "view",
      "type": "function",
      "constant": true
    },
    {
      "inputs": [
        {
          "internalType": "address",
          "name": "owner",
          "type": "address"
        },
        {
          "internalType": "uint256",
          "name": "index",
          "type": "uint256"
        }
      ],
      "name": "tokenOfOwnerByIndex",
      "outputs": [
        {
          "internalType": "uint256",
          "name": "",
          "type": "uint256"
        }
      ],
      "stateMutability": "view",
      "type": "function",
      "constant": true
    },
    {
      "inputs": [
        {
          "internalType": "uint256",
          "name": "tokenId",
          "type": "uint256"
        }
      ],
      "name": "tokenURI",
      "outputs": [
        {
          "internalType": "string",
          "name": "",
          "type": "string"
        }
      ],
      "stateMutability": "view",
      "type": "function",
      "constant": true
    },
    {
      "inputs": [],
      "name": "totalSupply",
      "outputs": [
        {
          "internalType": "uint256",
          "name": "",
          "type": "uint256"
        }
      ],
      "stateMutability": "view",
      "type": "function",
      "constant": true
    },
    {
      "inputs": [
        {
          "internalType": "address",
          "name": "from",
          "type": "address"
        },
        {
          "internalType": "address",
          "name": "to",
          "type": "address"
        },
        {
          "internalType": "uint256",
          "name": "tokenId",
          "type": "uint256"
        }
      ],
      "name": "transferFrom",
      "outputs": [],
      "stateMutability": "nonpayable",
      "type": "function"
    },
    {
      "inputs": [
        {
          "internalType": "uint256",
          "name": "tokenId",
          "type": "uint256"
        }
      ],
      "name": "getTokenURI",
      "outputs": [
        {
          "internalType": "string",
          "name": "",
          "type": "string"
        }
      ],
      "stateMutability": "view",
      "type": "function",
      "constant": true
    },
    {
      "inputs": [
        {
          "internalType": "uint256",
          "name": "tokenId",
          "type": "uint256"
        },
        {
          "internalType": "string",
          "name": "_tokenURI",
          "type": "string"
        }
      ],
      "name": "setTokenURI",
      "outputs": [],
      "stateMutability": "nonpayable",
      "type": "function"
    },
    {
      "inputs": [
        {
          "internalType": "string",
          "name": "name",
          "type": "string"
        },
        {
          "internalType": "uint256",
          "name": "_attack",
          "type": "uint256"
        },
        {
          "internalType": "uint256",
          "name": "_specialattack",
          "type": "uint256"
        },
        {
          "internalType": "uint256",
          "name": "_defense",
          "type": "uint256"
        },
        {
          "internalType": "uint256",
          "name": "_specialdefense",
          "type": "uint256"
        },
        {
          "internalType": "uint256",
          "name": "_speed",
          "type": "uint256"
        },
        {
          "internalType": "uint256",
          "name": "_hitpoints",
          "type": "uint256"
        },
        {
          "internalType": "uint256",
          "name": "_specialpoints",
          "type": "uint256"
        },
        {
          "internalType": "string",
          "name": "_class",
          "type": "string"
        }
      ],
      "name": "RequestNewCharacter",
      "outputs": [
        {
          "internalType": "uint256",
          "name": "",
          "type": "uint256"
        }
      ],
      "stateMutability": "nonpayable",
      "type": "function"
    },
    {
      "inputs": [
        {
          "internalType": "uint256",
          "name": "tokenId",
          "type": "uint256"
        }
      ],
      "name": "getLevel",
      "outputs": [
        {
          "internalType": "uint256",
          "name": "",
          "type": "uint256"
        }
      ],
      "stateMutability": "view",
      "type": "function",
      "constant": true
    },
    {
      "inputs": [],
      "name": "getNumberOfCharacters",
      "outputs": [
        {
          "internalType": "uint256",
          "name": "",
          "type": "uint256"
        }
      ],
      "stateMutability": "view",
      "type": "function",
      "constant": true
    },
    {
      "inputs": [
        {
          "internalType": "uint256",
          "name": "tokenId",
          "type": "uint256"
        }
      ],
      "name": "getCharacterOverView",
      "outputs": [
        {
          "internalType": "string",
          "name": "",
          "type": "string"
        },
        {
          "internalType": "string",
          "name": "",
          "type": "string"
        },
        {
          "internalType": "uint256",
          "name": "",
          "type": "uint256"
        },
        {
          "internalType": "uint256",
          "name": "",
          "type": "uint256"
        },
        {
          "internalType": "uint256",
          "name": "",
          "type": "uint256"
        }
      ],
      "stateMutability": "view",
      "type": "function",
      "constant": true
    },
    {
      "inputs": [
        {
          "internalType": "uint256",
          "name": "tokenId",
          "type": "uint256"
        }
      ],
      "name": "getCharacterStats",
      "outputs": [
        {
          "internalType": "uint256",
          "name": "",
          "type": "uint256"
        },
        {
          "internalType": "uint256",
          "name": "",
          "type": "uint256"
        },
        {
          "internalType": "uint256",
          "name": "",
          "type": "uint256"
        },
        {
          "internalType": "uint256",
          "name": "",
          "type": "uint256"
        },
        {
          "internalType": "uint256",
          "name": "",
          "type": "uint256"
        },
        {
          "internalType": "uint256",
          "name": "",
          "type": "uint256"
        },
        {
          "internalType": "uint256",
          "name": "",
          "type": "uint256"
        },
        {
          "internalType": "uint256",
          "name": "",
          "type": "uint256"
        }
      ],
      "stateMutability": "view",
      "type": "function",
      "constant": true
    }
  ],
  "bytecode": "0x60806040523480156200001157600080fd5b506040518060400160405280600e81526020017f506978656c4368617261637465720000000000000000000000000000000000008152506040518060400160405280600381526020017f5058430000000000000000000000000000000000000000000000000000000000815250620000966301ffc9a760e01b6200015f60201b60201c565b8160069080519060200190620000ae92919062000514565b508060079080519060200190620000c792919062000514565b50620000e06380ac58cd60e01b6200015f60201b60201c565b620000f8635b5e139f60e01b6200015f60201b60201c565b6200011063780e9d6360e01b6200015f60201b60201c565b5050620001276000801b336200026860201b60201c565b620001597f9f2df0fed2c77648de5860a4cc508cd0818c85b8b8a1ab4ceeef8d981c8956a6336200027e60201b60201c565b620005ca565b63ffffffff60e01b817bffffffffffffffffffffffffffffffffffffffffffffffffffffffff19161415620001fc576040517f08c379a000000000000000000000000000000000000000000000000000000000815260040180806020018281038252601c8152602001807f4552433136353a20696e76616c696420696e746572666163652069640000000081525060200191505060405180910390fd5b6001600080837bffffffffffffffffffffffffffffffffffffffffffffffffffffffff19167bffffffffffffffffffffffffffffffffffffffffffffffffffffffff1916815260200190815260200160002060006101000a81548160ff02191690831515021790555050565b6200027a82826200032260201b60201c565b5050565b620002b5600a600084815260200190815260200160002060020154620002a9620003c660201b60201c565b620003ce60201b60201c565b6200030c576040517f08c379a000000000000000000000000000000000000000000000000000000000815260040180806020018281038252602f81526020018062004961602f913960400191505060405180910390fd5b6200031e82826200032260201b60201c565b5050565b6200035181600a60008581526020019081526020016000206000016200040760201b620027121790919060201c565b15620003c25762000367620003c660201b60201c565b73ffffffffffffffffffffffffffffffffffffffff168173ffffffffffffffffffffffffffffffffffffffff16837f2f8788117e7eff1d82e926ec794901d17c78024a50270940304540a733656f0d60405160405180910390a45b5050565b600033905090565b6000620003ff82600a60008681526020019081526020016000206000016200043f60201b620027421790919060201c565b905092915050565b600062000437836000018373ffffffffffffffffffffffffffffffffffffffff1660001b6200047760201b60201c565b905092915050565b60006200046f836000018373ffffffffffffffffffffffffffffffffffffffff1660001b620004f160201b60201c565b905092915050565b60006200048b8383620004f160201b60201c565b620004e6578260000182908060018154018082558091505060019003906000526020600020016000909190919091505582600001805490508360010160008481526020019081526020016000208190555060019050620004eb565b600090505b92915050565b600080836001016000848152602001908152602001600020541415905092915050565b828054600181600116156101000203166002900490600052602060002090601f0160209004810192826200054c576000855562000598565b82601f106200056757805160ff191683800117855562000598565b8280016001018555821562000598579182015b82811115620005975782518255916020019190600101906200057a565b5b509050620005a79190620005ab565b5090565b5b80821115620005c6576000816000905550600101620005ac565b5090565b61438780620005da6000396000f3fe608060405234801561001057600080fd5b50600436106102065760003560e01c80636352211e1161011a57806395d89b41116100ad578063c87b56dd1161007c578063c87b56dd14610f44578063ca15c87314610feb578063d53913931461102d578063d547741f1461104b578063e985e9c51461109957610206565b806395d89b4114610d4e578063a217fddf14610dd1578063a22cb46514610def578063b88d4fde14610e3f57610206565b806386481d40116100e957806386481d4014610a995780638ed22dc814610adb5780639010d07c14610c8857806391d1485414610cea57610206565b80636352211e146108f35780636c0360eb1461094b5780636fe0c046146109ce57806370a0823114610a4157610206565b80632f2ff15d1161019d57806342842e0e1161016c57806342842e0e146106cf57806342966c681461073d5780634f6ccce71461076b5780634f95b5f0146107ad57806362d36dec146108d557610206565b80632f2ff15d1461052a5780632f745c591461057857806336568abe146105da5780633bb3a24d1461062857610206565b8063162094c4116101d9578063162094c41461039757806318160ddd1461045c57806323b872dd1461047a578063248a9ca3146104e857610206565b806301ffc9a71461020b57806306fdde031461026e578063081812fc146102f1578063095ea7b314610349575b600080fd5b6102566004803603602081101561022157600080fd5b8101908080357bffffffffffffffffffffffffffffffffffffffffffffffffffffffff19169060200190929190505050611113565b60405180821515815260200191505060405180910390f35b61027661117a565b6040518080602001828103825283818151815260200191508051906020019080838360005b838110156102b657808201518184015260208101905061029b565b50505050905090810190601f1680156102e35780820380516001836020036101000a031916815260200191505b509250505060405180910390f35b61031d6004803603602081101561030757600080fd5b810190808035906020019092919050505061121c565b604051808273ffffffffffffffffffffffffffffffffffffffff16815260200191505060405180910390f35b6103956004803603604081101561035f57600080fd5b81019080803573ffffffffffffffffffffffffffffffffffffffff169060200190929190803590602001909291905050506112b7565b005b61045a600480360360408110156103ad57600080fd5b8101908080359060200190929190803590602001906401000000008111156103d457600080fd5b8201836020820111156103e657600080fd5b8035906020019184600183028401116401000000008311171561040857600080fd5b91908080601f016020809104026020016040519081016040528093929190818152602001838380828437600081840152601f19601f8201169050808301925050505050505091929192905050506113fb565b005b6104646114a5565b6040518082815260200191505060405180910390f35b6104e66004803603606081101561049057600080fd5b81019080803573ffffffffffffffffffffffffffffffffffffffff169060200190929190803573ffffffffffffffffffffffffffffffffffffffff169060200190929190803590602001909291905050506114b6565b005b610514600480360360208110156104fe57600080fd5b810190808035906020019092919050505061152c565b6040518082815260200191505060405180910390f35b6105766004803603604081101561054057600080fd5b8101908080359060200190929190803573ffffffffffffffffffffffffffffffffffffffff16906020019092919050505061154c565b005b6105c46004803603604081101561058e57600080fd5b81019080803573ffffffffffffffffffffffffffffffffffffffff169060200190929190803590602001909291905050506115d6565b6040518082815260200191505060405180910390f35b610626600480360360408110156105f057600080fd5b8101908080359060200190929190803573ffffffffffffffffffffffffffffffffffffffff169060200190929190505050611631565b005b6106546004803603602081101561063e57600080fd5b81019080803590602001909291905050506116ca565b6040518080602001828103825283818151815260200191508051906020019080838360005b83811015610694578082015181840152602081019050610679565b50505050905090810190601f1680156106c15780820380516001836020036101000a031916815260200191505b509250505060405180910390f35b61073b600480360360608110156106e557600080fd5b81019080803573ffffffffffffffffffffffffffffffffffffffff169060200190929190803573ffffffffffffffffffffffffffffffffffffffff169060200190929190803590602001909291905050506116dc565b005b6107696004803603602081101561075357600080fd5b81019080803590602001909291905050506116fc565b005b6107976004803603602081101561078157600080fd5b810190808035906020019092919050505061176e565b6040518082815260200191505060405180910390f35b6107d9600480360360208110156107c357600080fd5b8101908080359060200190929190505050611791565b604051808060200180602001868152602001858152602001848152602001838103835288818151815260200191508051906020019080838360005b8381101561082f578082015181840152602081019050610814565b50505050905090810190601f16801561085c5780820380516001836020036101000a031916815260200191505b50838103825287818151815260200191508051906020019080838360005b8381101561089557808201518184015260208101905061087a565b50505050905090810190601f1680156108c25780820380516001836020036101000a031916815260200191505b5097505050505050505060405180910390f35b6108dd6119d7565b6040518082815260200191505060405180910390f35b61091f6004803603602081101561090957600080fd5b81019080803590602001909291905050506119e8565b604051808273ffffffffffffffffffffffffffffffffffffffff16815260200191505060405180910390f35b610953611a1f565b6040518080602001828103825283818151815260200191508051906020019080838360005b83811015610993578082015181840152602081019050610978565b50505050905090810190601f1680156109c05780820380516001836020036101000a031916815260200191505b509250505060405180910390f35b6109fa600480360360208110156109e457600080fd5b8101908080359060200190929190505050611ac1565b604051808981526020018881526020018781526020018681526020018581526020018481526020018381526020018281526020019850505050505050505060405180910390f35b610a8360048036036020811015610a5757600080fd5b81019080803573ffffffffffffffffffffffffffffffffffffffff169060200190929190505050611d1f565b6040518082815260200191505060405180910390f35b610ac560048036036020811015610aaf57600080fd5b8101908080359060200190929190505050611df4565b6040518082815260200191505060405180910390f35b610c726004803603610120811015610af257600080fd5b8101908080359060200190640100000000811115610b0f57600080fd5b820183602082011115610b2157600080fd5b80359060200191846001830284011164010000000083111715610b4357600080fd5b91908080601f016020809104026020016040519081016040528093929190818152602001838380828437600081840152601f19601f8201169050808301925050505050505091929192908035906020019092919080359060200190929190803590602001909291908035906020019092919080359060200190929190803590602001909291908035906020019092919080359060200190640100000000811115610bec57600080fd5b820183602082011115610bfe57600080fd5b80359060200191846001830284011164010000000083111715610c2057600080fd5b91908080601f016020809104026020016040519081016040528093929190818152602001838380828437600081840152601f19601f820116905080830192505050505050509192919290505050611e1c565b6040518082815260200191505060405180910390f35b610cbe60048036036040811015610c9e57600080fd5b810190808035906020019092919080359060200190929190505050611f9d565b604051808273ffffffffffffffffffffffffffffffffffffffff16815260200191505060405180910390f35b610d3660048036036040811015610d0057600080fd5b8101908080359060200190929190803573ffffffffffffffffffffffffffffffffffffffff169060200190929190505050611fcf565b60405180821515815260200191505060405180910390f35b610d56612001565b6040518080602001828103825283818151815260200191508051906020019080838360005b83811015610d96578082015181840152602081019050610d7b565b50505050905090810190601f168015610dc35780820380516001836020036101000a031916815260200191505b509250505060405180910390f35b610dd96120a3565b6040518082815260200191505060405180910390f35b610e3d60048036036040811015610e0557600080fd5b81019080803573ffffffffffffffffffffffffffffffffffffffff1690602001909291908035151590602001909291905050506120aa565b005b610f4260048036036080811015610e5557600080fd5b81019080803573ffffffffffffffffffffffffffffffffffffffff169060200190929190803573ffffffffffffffffffffffffffffffffffffffff1690602001909291908035906020019092919080359060200190640100000000811115610ebc57600080fd5b820183602082011115610ece57600080fd5b80359060200191846001830284011164010000000083111715610ef057600080fd5b91908080601f016020809104026020016040519081016040528093929190818152602001838380828437600081840152601f19601f820116905080830192505050505050509192919290505050612260565b005b610f7060048036036020811015610f5a57600080fd5b81019080803590602001909291905050506122d8565b6040518080602001828103825283818151815260200191508051906020019080838360005b83811015610fb0578082015181840152602081019050610f95565b50505050905090810190601f168015610fdd5780820380516001836020036101000a031916815260200191505b509250505060405180910390f35b6110176004803603602081101561100157600080fd5b81019080803590602001909291905050506125a9565b6040518082815260200191505060405180910390f35b6110356125d0565b6040518082815260200191505060405180910390f35b6110976004803603604081101561106157600080fd5b8101908080359060200190929190803573ffffffffffffffffffffffffffffffffffffffff1690602001909291905050506125f4565b005b6110fb600480360360408110156110af57600080fd5b81019080803573ffffffffffffffffffffffffffffffffffffffff169060200190929190803573ffffffffffffffffffffffffffffffffffffffff16906020019092919050505061267e565b60405180821515815260200191505060405180910390f35b6000806000837bffffffffffffffffffffffffffffffffffffffffffffffffffffffff19167bffffffffffffffffffffffffffffffffffffffffffffffffffffffff1916815260200190815260200160002060009054906101000a900460ff169050919050565b606060068054600181600116156101000203166002900480601f0160208091040260200160405190810160405280929190818152602001828054600181600116156101000203166002900480156112125780601f106111e757610100808354040283529160200191611212565b820191906000526020600020905b8154815290600101906020018083116111f557829003601f168201915b5050505050905090565b600061122782612772565b61127c576040517f08c379a000000000000000000000000000000000000000000000000000000000815260040180806020018281038252602c8152602001806141f1602c913960400191505060405180910390fd5b6004600083815260200190815260200160002060009054906101000a900473ffffffffffffffffffffffffffffffffffffffff169050919050565b60006112c2826119e8565b90508073ffffffffffffffffffffffffffffffffffffffff168373ffffffffffffffffffffffffffffffffffffffff161415611349576040517f08c379a00000000000000000000000000000000000000000000000000000000081526004018080602001828103825260218152602001806142a16021913960400191505060405180910390fd5b8073ffffffffffffffffffffffffffffffffffffffff1661136861278f565b73ffffffffffffffffffffffffffffffffffffffff16148061139757506113968161139161278f565b61267e565b5b6113ec576040517f08c379a00000000000000000000000000000000000000000000000000000000081526004018080602001828103825260388152602001806141446038913960400191505060405180910390fd5b6113f68383612797565b505050565b6114257f9f2df0fed2c77648de5860a4cc508cd0818c85b8b8a1ab4ceeef8d981c8956a633611fcf565b611497576040517f08c379a000000000000000000000000000000000000000000000000000000000815260040180806020018281038252600a8152602001807f4e6f74206d696e7465720000000000000000000000000000000000000000000081525060200191505060405180910390fd5b6114a18282612850565b5050565b60006114b160026128da565b905090565b6114c76114c161278f565b826128ef565b61151c576040517f08c379a00000000000000000000000000000000000000000000000000000000081526004018080602001828103825260318152602001806142c26031913960400191505060405180910390fd5b6115278383836129e3565b505050565b6000600a6000838152602001908152602001600020600201549050919050565b611573600a60008481526020019081526020016000206002015461156e61278f565b611fcf565b6115c8576040517f08c379a000000000000000000000000000000000000000000000000000000000815260040180806020018281038252602f81526020018061403d602f913960400191505060405180910390fd5b6115d28282612c26565b5050565b600061162982600160008673ffffffffffffffffffffffffffffffffffffffff1673ffffffffffffffffffffffffffffffffffffffff168152602001908152602001600020612cba90919063ffffffff16565b905092915050565b61163961278f565b73ffffffffffffffffffffffffffffffffffffffff168173ffffffffffffffffffffffffffffffffffffffff16146116bc576040517f08c379a000000000000000000000000000000000000000000000000000000000815260040180806020018281038252602f815260200180614323602f913960400191505060405180910390fd5b6116c68282612cd4565b5050565b60606116d5826122d8565b9050919050565b6116f783838360405180602001604052806000815250612260565b505050565b61170d61170761278f565b826128ef565b611762576040517f08c379a00000000000000000000000000000000000000000000000000000000081526004018080602001828103825260308152602001806142f36030913960400191505060405180910390fd5b61176b81612d68565b50565b600080611785836002612ea290919063ffffffff16565b50905080915050919050565b6060806000806000600c6000878152602001908152602001600020600a01600c6000888152602001908152602001600020600901600c600089815260200190815260200160002060070154600c60008a815260200190815260200160002060060154600c60008b815260200190815260200160002060050154600c60008c815260200190815260200160002060040154600c60008d815260200190815260200160002060030154600c60008e815260200190815260200160002060020154600c60008f81526020019081526020016000206001015401010101010161187589611df4565b600c60008b815260200190815260200160002060080154848054600181600116156101000203166002900480601f0160208091040260200160405190810160405280929190818152602001828054600181600116156101000203166002900480156119215780601f106118f657610100808354040283529160200191611921565b820191906000526020600020905b81548152906001019060200180831161190457829003601f168201915b50505050509450838054600181600116156101000203166002900480601f0160208091040260200160405190810160405280929190818152602001828054600181600116156101000203166002900480156119bd5780601f10611992576101008083540402835291602001916119bd565b820191906000526020600020905b8154815290600101906020018083116119a057829003601f168201915b505050505093509450945094509450945091939590929450565b60006119e3600b612ece565b905090565b6000611a18826040518060600160405280602981526020016141a6602991396002612edc9092919063ffffffff16565b9050919050565b606060098054600181600116156101000203166002900480601f016020809104026020016040519081016040528092919081815260200182805460018160011615610100020316600290048015611ab75780601f10611a8c57610100808354040283529160200191611ab7565b820191906000526020600020905b815481529060010190602001808311611a9a57829003601f168201915b5050505050905090565b6000806000806000806000806000600c60008b8152602001908152602001600020604051806101600160405290816000820160009054906101000a900473ffffffffffffffffffffffffffffffffffffffff1673ffffffffffffffffffffffffffffffffffffffff1673ffffffffffffffffffffffffffffffffffffffff1681526020016001820154815260200160028201548152602001600382015481526020016004820154815260200160058201548152602001600682015481526020016007820154815260200160088201548152602001600982018054600181600116156101000203166002900480601f016020809104026020016040519081016040528092919081815260200182805460018160011615610100020316600290048015611c2d5780601f10611c0257610100808354040283529160200191611c2d565b820191906000526020600020905b815481529060010190602001808311611c1057829003601f168201915b50505050508152602001600a82018054600181600116156101000203166002900480601f016020809104026020016040519081016040528092919081815260200182805460018160011615610100020316600290048015611ccf5780601f10611ca457610100808354040283529160200191611ccf565b820191906000526020600020905b815481529060010190602001808311611cb257829003601f168201915b505050505081525050905080602001518160400151826060015183608001518460a001518560c001518660e001518761010001519850985098509850985098509850985050919395975091939597565b60008073ffffffffffffffffffffffffffffffffffffffff168273ffffffffffffffffffffffffffffffffffffffff161415611da6576040517f08c379a000000000000000000000000000000000000000000000000000000000815260040180806020018281038252602a81526020018061417c602a913960400191505060405180910390fd5b611ded600160008473ffffffffffffffffffffffffffffffffffffffff1673ffffffffffffffffffffffffffffffffffffffff168152602001908152602001600020612efb565b9050919050565b6000611e15600c600084815260200190815260200160002060080154612f10565b9050919050565b600080611e29600b612ece565b9050611e35600b612f55565b6040518061016001604052803373ffffffffffffffffffffffffffffffffffffffff1681526020018b81526020018a8152602001898152602001888152602001878152602001868152602001858152602001600081526020018481526020018c815250600c600083815260200190815260200160002060008201518160000160006101000a81548173ffffffffffffffffffffffffffffffffffffffff021916908373ffffffffffffffffffffffffffffffffffffffff1602179055506020820151816001015560408201518160020155606082015181600301556080820151816004015560a0820151816005015560c0820151816006015560e082015181600701556101008201518160080155610120820151816009019080519060200190611f60929190613f27565b5061014082015181600a019080519060200190611f7e929190613f27565b50905050611f8c3382612f6b565b809150509998505050505050505050565b6000611fc782600a6000868152602001908152602001600020600001612f8990919063ffffffff16565b905092915050565b6000611ff982600a600086815260200190815260200160002060000161274290919063ffffffff16565b905092915050565b606060078054600181600116156101000203166002900480601f0160208091040260200160405190810160405280929190818152602001828054600181600116156101000203166002900480156120995780601f1061206e57610100808354040283529160200191612099565b820191906000526020600020905b81548152906001019060200180831161207c57829003601f168201915b5050505050905090565b6000801b81565b6120b261278f565b73ffffffffffffffffffffffffffffffffffffffff168273ffffffffffffffffffffffffffffffffffffffff161415612153576040517f08c379a00000000000000000000000000000000000000000000000000000000081526004018080602001828103825260198152602001807f4552433732313a20617070726f766520746f2063616c6c65720000000000000081525060200191505060405180910390fd5b806005600061216061278f565b73ffffffffffffffffffffffffffffffffffffffff1673ffffffffffffffffffffffffffffffffffffffff16815260200190815260200160002060008473ffffffffffffffffffffffffffffffffffffffff1673ffffffffffffffffffffffffffffffffffffffff16815260200190815260200160002060006101000a81548160ff0219169083151502179055508173ffffffffffffffffffffffffffffffffffffffff1661220d61278f565b73ffffffffffffffffffffffffffffffffffffffff167f17307eab39ab6107e8899845ad3d59bd9653f200f220920489ca2b5937696c318360405180821515815260200191505060405180910390a35050565b61227161226b61278f565b836128ef565b6122c6576040517f08c379a00000000000000000000000000000000000000000000000000000000081526004018080602001828103825260318152602001806142c26031913960400191505060405180910390fd5b6122d284848484612fa3565b50505050565b60606122e382612772565b612338576040517f08c379a000000000000000000000000000000000000000000000000000000000815260040180806020018281038252602f815260200180614272602f913960400191505060405180910390fd5b6000600860008481526020019081526020016000208054600181600116156101000203166002900480601f0160208091040260200160405190810160405280929190818152602001828054600181600116156101000203166002900480156123e15780601f106123b6576101008083540402835291602001916123e1565b820191906000526020600020905b8154815290600101906020018083116123c457829003601f168201915b5050505050905060006123f2611a1f565b90506000815114156124085781925050506125a4565b6000825111156124d95780826040516020018083805190602001908083835b6020831061244a5780518252602082019150602081019050602083039250612427565b6001836020036101000a03801982511681845116808217855250505050505090500182805190602001908083835b6020831061249b5780518252602082019150602081019050602083039250612478565b6001836020036101000a03801982511681845116808217855250505050505090500192505050604051602081830303815290604052925050506125a4565b806124e385613015565b6040516020018083805190602001908083835b6020831061251957805182526020820191506020810190506020830392506124f6565b6001836020036101000a03801982511681845116808217855250505050505090500182805190602001908083835b6020831061256a5780518252602082019150602081019050602083039250612547565b6001836020036101000a03801982511681845116808217855250505050505090500192505050604051602081830303815290604052925050505b919050565b60006125c9600a600084815260200190815260200160002060000161315c565b9050919050565b7f9f2df0fed2c77648de5860a4cc508cd0818c85b8b8a1ab4ceeef8d981c8956a681565b61261b600a60008481526020019081526020016000206002015461261661278f565b611fcf565b612670576040517f08c379a00000000000000000000000000000000000000000000000000000000081526004018080602001828103825260308152602001806141146030913960400191505060405180910390fd5b61267a8282612cd4565b5050565b6000600560008473ffffffffffffffffffffffffffffffffffffffff1673ffffffffffffffffffffffffffffffffffffffff16815260200190815260200160002060008373ffffffffffffffffffffffffffffffffffffffff1673ffffffffffffffffffffffffffffffffffffffff16815260200190815260200160002060009054906101000a900460ff16905092915050565b600061273a836000018373ffffffffffffffffffffffffffffffffffffffff1660001b613171565b905092915050565b600061276a836000018373ffffffffffffffffffffffffffffffffffffffff1660001b6131e1565b905092915050565b600061278882600261320490919063ffffffff16565b9050919050565b600033905090565b816004600083815260200190815260200160002060006101000a81548173ffffffffffffffffffffffffffffffffffffffff021916908373ffffffffffffffffffffffffffffffffffffffff160217905550808273ffffffffffffffffffffffffffffffffffffffff1661280a836119e8565b73ffffffffffffffffffffffffffffffffffffffff167f8c5be1e5ebec7d5bd14f71427d1e84f3dd0314c0f7b2291e5b200ac8c7c3b92560405160405180910390a45050565b61285982612772565b6128ae576040517f08c379a000000000000000000000000000000000000000000000000000000000815260040180806020018281038252602c81526020018061421d602c913960400191505060405180910390fd5b806008600084815260200190815260200160002090805190602001906128d5929190613f27565b505050565b60006128e88260000161321e565b9050919050565b60006128fa82612772565b61294f576040517f08c379a000000000000000000000000000000000000000000000000000000000815260040180806020018281038252602c8152602001806140e8602c913960400191505060405180910390fd5b600061295a836119e8565b90508073ffffffffffffffffffffffffffffffffffffffff168473ffffffffffffffffffffffffffffffffffffffff1614806129c957508373ffffffffffffffffffffffffffffffffffffffff166129b18461121c565b73ffffffffffffffffffffffffffffffffffffffff16145b806129da57506129d9818561267e565b5b91505092915050565b8273ffffffffffffffffffffffffffffffffffffffff16612a03826119e8565b73ffffffffffffffffffffffffffffffffffffffff1614612a6f576040517f08c379a00000000000000000000000000000000000000000000000000000000081526004018080602001828103825260298152602001806142496029913960400191505060405180910390fd5b600073ffffffffffffffffffffffffffffffffffffffff168273ffffffffffffffffffffffffffffffffffffffff161415612af5576040517f08c379a000000000000000000000000000000000000000000000000000000000815260040180806020018281038252602481526020018061409e6024913960400191505060405180910390fd5b612b0083838361322f565b612b0b600082612797565b612b5c81600160008673ffffffffffffffffffffffffffffffffffffffff1673ffffffffffffffffffffffffffffffffffffffff16815260200190815260200160002061323490919063ffffffff16565b50612bae81600160008573ffffffffffffffffffffffffffffffffffffffff1673ffffffffffffffffffffffffffffffffffffffff16815260200190815260200160002061324e90919063ffffffff16565b50612bc5818360026132689092919063ffffffff16565b50808273ffffffffffffffffffffffffffffffffffffffff168473ffffffffffffffffffffffffffffffffffffffff167fddf252ad1be2c89b69c2b068fc378daa952ba7f163c4a11628f55a4df523b3ef60405160405180910390a4505050565b612c4e81600a600085815260200190815260200160002060000161271290919063ffffffff16565b15612cb657612c5b61278f565b73ffffffffffffffffffffffffffffffffffffffff168173ffffffffffffffffffffffffffffffffffffffff16837f2f8788117e7eff1d82e926ec794901d17c78024a50270940304540a733656f0d60405160405180910390a45b5050565b6000612cc9836000018361329d565b60001c905092915050565b612cfc81600a600085815260200190815260200160002060000161332090919063ffffffff16565b15612d6457612d0961278f565b73ffffffffffffffffffffffffffffffffffffffff168173ffffffffffffffffffffffffffffffffffffffff16837ff6391f5c32d9c69d2a47ea670b442974b53935d1edc7fd64eb21e047a839171b60405160405180910390a45b5050565b6000612d73826119e8565b9050612d818160008461322f565b612d8c600083612797565b60006008600084815260200190815260200160002080546001816001161561010002031660029004905014612ddb57600860008381526020019081526020016000206000612dda9190613fb5565b5b612e2c82600160008473ffffffffffffffffffffffffffffffffffffffff1673ffffffffffffffffffffffffffffffffffffffff16815260200190815260200160002061323490919063ffffffff16565b50612e4182600261335090919063ffffffff16565b5081600073ffffffffffffffffffffffffffffffffffffffff168273ffffffffffffffffffffffffffffffffffffffff167fddf252ad1be2c89b69c2b068fc378daa952ba7f163c4a11628f55a4df523b3ef60405160405180910390a45050565b600080600080612eb5866000018661336a565b915091508160001c8160001c9350935050509250929050565b600081600001549050919050565b6000612eef846000018460001b84613403565b60001c90509392505050565b6000612f09826000016134f9565b9050919050565b60008060026001840181612f2057fe5b0490508291505b81811015612f4f57809150600281828581612f3e57fe5b040181612f4757fe5b049050612f27565b50919050565b6001816000016000828254019250508190555050565b612f8582826040518060200160405280600081525061350a565b5050565b6000612f98836000018361329d565b60001c905092915050565b612fae8484846129e3565b612fba8484848461357b565b61300f576040517f08c379a000000000000000000000000000000000000000000000000000000000815260040180806020018281038252603281526020018061406c6032913960400191505060405180910390fd5b50505050565b6060600082141561305d576040518060400160405280600181526020017f30000000000000000000000000000000000000000000000000000000000000008152509050613157565b600082905060005b60008214613087578080600101915050600a828161307f57fe5b049150613065565b60008167ffffffffffffffff811180156130a057600080fd5b506040519080825280601f01601f1916602001820160405280156130d35781602001600182028036833780820191505090505b50905060006001830390508593505b6000841461314f57600a84816130f457fe5b0660300160f81b8282806001900393508151811061310e57fe5b60200101907effffffffffffffffffffffffffffffffffffffffffffffffffffffffffffff1916908160001a905350600a848161314757fe5b0493506130e2565b819450505050505b919050565b600061316a826000016134f9565b9050919050565b600061317d83836131e1565b6131d65782600001829080600181540180825580915050600190039060005260206000200160009091909190915055826000018054905083600101600084815260200190815260200160002081905550600190506131db565b600090505b92915050565b600080836001016000848152602001908152602001600020541415905092915050565b6000613216836000018360001b613794565b905092915050565b600081600001805490509050919050565b505050565b6000613246836000018360001b6137b7565b905092915050565b6000613260836000018360001b613171565b905092915050565b6000613294846000018460001b8473ffffffffffffffffffffffffffffffffffffffff1660001b61389f565b90509392505050565b6000818360000180549050116132fe576040517f08c379a000000000000000000000000000000000000000000000000000000000815260040180806020018281038252602281526020018061401b6022913960400191505060405180910390fd5b82600001828154811061330d57fe5b9060005260206000200154905092915050565b6000613348836000018373ffffffffffffffffffffffffffffffffffffffff1660001b6137b7565b905092915050565b6000613362836000018360001b61397b565b905092915050565b600080828460000180549050116133cc576040517f08c379a00000000000000000000000000000000000000000000000000000000081526004018080602001828103825260228152602001806141cf6022913960400191505060405180910390fd5b60008460000184815481106133dd57fe5b906000526020600020906002020190508060000154816001015492509250509250929050565b600080846001016000858152602001908152602001600020549050600081141583906134ca576040517f08c379a00000000000000000000000000000000000000000000000000000000081526004018080602001828103825283818151815260200191508051906020019080838360005b8381101561348f578082015181840152602081019050613474565b50505050905090810190601f1680156134bc5780820380516001836020036101000a031916815260200191505b509250505060405180910390fd5b508460000160018203815481106134dd57fe5b9060005260206000209060020201600101549150509392505050565b600081600001805490509050919050565b6135148383613a94565b613521600084848461357b565b613576576040517f08c379a000000000000000000000000000000000000000000000000000000000815260040180806020018281038252603281526020018061406c6032913960400191505060405180910390fd5b505050565b600061359c8473ffffffffffffffffffffffffffffffffffffffff16613c88565b6135a9576001905061378c565b600061371363150b7a0260e01b6135be61278f565b888787604051602401808573ffffffffffffffffffffffffffffffffffffffff1681526020018473ffffffffffffffffffffffffffffffffffffffff16815260200183815260200180602001828103825283818151815260200191508051906020019080838360005b83811015613642578082015181840152602081019050613627565b50505050905090810190601f16801561366f5780820380516001836020036101000a031916815260200191505b5095505050505050604051602081830303815290604052907bffffffffffffffffffffffffffffffffffffffffffffffffffffffff19166020820180517bffffffffffffffffffffffffffffffffffffffffffffffffffffffff838183161783525050505060405180606001604052806032815260200161406c603291398773ffffffffffffffffffffffffffffffffffffffff16613c9b9092919063ffffffff16565b9050600081806020019051602081101561372c57600080fd5b8101908080519060200190929190505050905063150b7a0260e01b7bffffffffffffffffffffffffffffffffffffffffffffffffffffffff1916817bffffffffffffffffffffffffffffffffffffffffffffffffffffffff191614925050505b949350505050565b600080836001016000848152602001908152602001600020541415905092915050565b60008083600101600084815260200190815260200160002054905060008114613893576000600182039050600060018660000180549050039050600086600001828154811061380257fe5b906000526020600020015490508087600001848154811061381f57fe5b906000526020600020018190555060018301876001016000838152602001908152602001600020819055508660000180548061385757fe5b60019003818190600052602060002001600090559055866001016000878152602001908152602001600020600090556001945050505050613899565b60009150505b92915050565b600080846001016000858152602001908152602001600020549050600081141561394657846000016040518060400160405280868152602001858152509080600181540180825580915050600190039060005260206000209060020201600090919091909150600082015181600001556020820151816001015550508460000180549050856001016000868152602001908152602001600020819055506001915050613974565b8285600001600183038154811061395957fe5b90600052602060002090600202016001018190555060009150505b9392505050565b60008083600101600084815260200190815260200160002054905060008114613a8857600060018203905060006001866000018054905003905060008660000182815481106139c657fe5b90600052602060002090600202019050808760000184815481106139e657fe5b9060005260206000209060020201600082015481600001556001820154816001015590505060018301876001016000836000015481526020019081526020016000208190555086600001805480613a3957fe5b6001900381819060005260206000209060020201600080820160009055600182016000905550509055866001016000878152602001908152602001600020600090556001945050505050613a8e565b60009150505b92915050565b600073ffffffffffffffffffffffffffffffffffffffff168273ffffffffffffffffffffffffffffffffffffffff161415613b37576040517f08c379a00000000000000000000000000000000000000000000000000000000081526004018080602001828103825260208152602001807f4552433732313a206d696e7420746f20746865207a65726f206164647265737381525060200191505060405180910390fd5b613b4081612772565b15613bb3576040517f08c379a000000000000000000000000000000000000000000000000000000000815260040180806020018281038252601c8152602001807f4552433732313a20746f6b656e20616c7265616479206d696e7465640000000081525060200191505060405180910390fd5b613bbf6000838361322f565b613c1081600160008573ffffffffffffffffffffffffffffffffffffffff1673ffffffffffffffffffffffffffffffffffffffff16815260200190815260200160002061324e90919063ffffffff16565b50613c27818360026132689092919063ffffffff16565b50808273ffffffffffffffffffffffffffffffffffffffff16600073ffffffffffffffffffffffffffffffffffffffff167fddf252ad1be2c89b69c2b068fc378daa952ba7f163c4a11628f55a4df523b3ef60405160405180910390a45050565b600080823b905060008111915050919050565b6060613caa8484600085613cb3565b90509392505050565b606082471015613d0e576040517f08c379a00000000000000000000000000000000000000000000000000000000081526004018080602001828103825260268152602001806140c26026913960400191505060405180910390fd5b613d1785613c88565b613d89576040517f08c379a000000000000000000000000000000000000000000000000000000000815260040180806020018281038252601d8152602001807f416464726573733a2063616c6c20746f206e6f6e2d636f6e747261637400000081525060200191505060405180910390fd5b6000808673ffffffffffffffffffffffffffffffffffffffff1685876040518082805190602001908083835b60208310613dd85780518252602082019150602081019050602083039250613db5565b6001836020036101000a03801982511681845116808217855250505050505090500191505060006040518083038185875af1925050503d8060008114613e3a576040519150601f19603f3d011682016040523d82523d6000602084013e613e3f565b606091505b5091509150613e4f828286613e5b565b92505050949350505050565b60608315613e6b57829050613f20565b600083511115613e7e5782518084602001fd5b816040517f08c379a00000000000000000000000000000000000000000000000000000000081526004018080602001828103825283818151815260200191508051906020019080838360005b83811015613ee5578082015181840152602081019050613eca565b50505050905090810190601f168015613f125780820380516001836020036101000a031916815260200191505b509250505060405180910390fd5b9392505050565b828054600181600116156101000203166002900490600052602060002090601f016020900481019282613f5d5760008555613fa4565b82601f10613f7657805160ff1916838001178555613fa4565b82800160010185558215613fa4579182015b82811115613fa3578251825591602001919060010190613f88565b5b509050613fb19190613ffd565b5090565b50805460018160011615610100020316600290046000825580601f10613fdb5750613ffa565b601f016020900490600052602060002090810190613ff99190613ffd565b5b50565b5b80821115614016576000816000905550600101613ffe565b509056fe456e756d657261626c655365743a20696e646578206f7574206f6620626f756e6473416363657373436f6e74726f6c3a2073656e646572206d75737420626520616e2061646d696e20746f206772616e744552433732313a207472616e7366657220746f206e6f6e20455243373231526563656976657220696d706c656d656e7465724552433732313a207472616e7366657220746f20746865207a65726f2061646472657373416464726573733a20696e73756666696369656e742062616c616e636520666f722063616c6c4552433732313a206f70657261746f7220717565727920666f72206e6f6e6578697374656e7420746f6b656e416363657373436f6e74726f6c3a2073656e646572206d75737420626520616e2061646d696e20746f207265766f6b654552433732313a20617070726f76652063616c6c6572206973206e6f74206f776e6572206e6f7220617070726f76656420666f7220616c6c4552433732313a2062616c616e636520717565727920666f7220746865207a65726f20616464726573734552433732313a206f776e657220717565727920666f72206e6f6e6578697374656e7420746f6b656e456e756d657261626c654d61703a20696e646578206f7574206f6620626f756e64734552433732313a20617070726f76656420717565727920666f72206e6f6e6578697374656e7420746f6b656e4552433732314d657461646174613a2055524920736574206f66206e6f6e6578697374656e7420746f6b656e4552433732313a207472616e73666572206f6620746f6b656e2074686174206973206e6f74206f776e4552433732314d657461646174613a2055524920717565727920666f72206e6f6e6578697374656e7420746f6b656e4552433732313a20617070726f76616c20746f2063757272656e74206f776e65724552433732313a207472616e736665722063616c6c6572206973206e6f74206f776e6572206e6f7220617070726f7665644552433732314275726e61626c653a2063616c6c6572206973206e6f74206f776e6572206e6f7220617070726f766564416363657373436f6e74726f6c3a2063616e206f6e6c792072656e6f756e636520726f6c657320666f722073656c66a2646970667358221220bd3a53bcd1fe35fb55c7c0b805180e0c6d8006a1f43a69bbf6455afc576f205b64736f6c63430007060033416363657373436f6e74726f6c3a2073656e646572206d75737420626520616e2061646d696e20746f206772616e74",
  "immutableReferences": {},
  "source": "pragma solidity ^0.7.0;\r\n\r\nimport \"openzeppelin-solidity/contracts/token/ERC721/ERC721Burnable.sol\";\r\nimport \"openzeppelin-solidity/contracts/access/AccessControl.sol\";\r\nimport \"openzeppelin-solidity/contracts/utils/Strings.sol\";\r\nimport \"openzeppelin-solidity/contracts/utils/Counters.sol\";\r\n\r\n\r\ncontract PixelCharacterGeneratorV2 is ERC721Burnable, AccessControl {\r\n    using Strings for string;\r\n    using Counters for Counters.Counter;\r\n\r\n    \r\n        struct Character {\r\n        address owner;\r\n        uint256 attack;\r\n        uint256 specialattack;\r\n        uint256 defense;\r\n        uint256 specialdefense;\r\n        uint256 speed;\r\n        uint256 hitpoints;\r\n        uint256 specialpoints;\r\n        uint256 experience;\r\n        string class;\r\n        string name;\r\n    }\r\n    \r\n    Counters.Counter private charIds;\r\n    mapping(uint256 => Character) charRecords;\r\n    mapping(uint256 => address) idToAddress;\r\n\r\n\r\n    bytes32 public constant MINTER_ROLE = keccak256(\"MINTER_ROLE\");\r\n\r\n\r\n    modifier onlyMinter {\r\n        require(hasRole(MINTER_ROLE, msg.sender), \"Not minter\");\r\n        _;\r\n    }\r\n    modifier onlyAdmin {\r\n        require(hasRole(DEFAULT_ADMIN_ROLE, msg.sender), \"Not admin\");\r\n        _;\r\n    }\r\n\r\n    constructor()\r\n        ERC721(\"PixelCharacter\", \"PXC\")\r\n    {   \r\n            // Give caller admin permissions\r\n    _setupRole(DEFAULT_ADMIN_ROLE, msg.sender);\r\n\r\n    // Make the caller admin a minter\r\n    grantRole(MINTER_ROLE, msg.sender);\r\n    }\r\n\r\n    function getTokenURI(uint256 tokenId) public view returns (string memory) {\r\n        return tokenURI(tokenId);\r\n    }\r\n\r\n    function setTokenURI(uint256 tokenId, string memory _tokenURI) public onlyMinter {\r\n        _setTokenURI(tokenId, _tokenURI);\r\n    }\r\n\r\n    function RequestNewCharacter(string memory name, uint256 _attack, uint256 _specialattack, uint256 _defense, uint256 _specialdefense, uint256 _speed, uint256 _hitpoints, uint256 _specialpoints, string memory _class)\r\n    public returns (uint256)\r\n    {\r\n        uint256 currId = charIds.current();\r\n        charIds.increment();\r\n\r\n\r\n        \r\n        charRecords[currId] = Character(\r\n                 msg.sender,\r\n                _attack,\r\n                _specialattack,\r\n                _defense,\r\n                _specialdefense,\r\n                _speed,\r\n                _hitpoints,\r\n                _specialpoints,\r\n                0,\r\n                _class,\r\n                name\r\n            );\r\n        _safeMint(msg.sender, currId);\r\n        return(currId);\r\n    }\r\n\r\n    function getLevel(uint256 tokenId) public view returns (uint256) {\r\n        return sqrt(charRecords[tokenId].experience);\r\n    }\r\n\r\n    function getNumberOfCharacters() public view returns (uint256) {\r\n        return charIds.current(); \r\n    }\r\n\r\n    function getCharacterOverView(uint256 tokenId)\r\n        public\r\n        view\r\n        returns (\r\n            string memory,\r\n            string memory,\r\n            uint256,\r\n            uint256,\r\n            uint256\r\n        )\r\n    {\r\n        return (\r\n            charRecords[tokenId].name,\r\n            charRecords[tokenId].class,\r\n            charRecords[tokenId].attack + charRecords[tokenId].specialattack + charRecords[tokenId].defense + charRecords[tokenId].specialdefense + charRecords[tokenId].speed + charRecords[tokenId].hitpoints + charRecords[tokenId].specialpoints,\r\n            getLevel(tokenId),\r\n            charRecords[tokenId].experience\r\n        );\r\n    }\r\n\r\n    function getCharacterStats(uint256 tokenId)\r\n        public\r\n        view\r\n        returns (\r\n            uint256,\r\n            uint256,\r\n            uint256,\r\n            uint256,\r\n            uint256,\r\n            uint256,\r\n            uint256,\r\n            uint256\r\n        )\r\n    {\r\n        Character memory c = charRecords[tokenId];\r\n        return (\r\n            c.attack,\r\n            c.specialattack,\r\n            c.defense,\r\n            c.specialdefense,\r\n            c.speed,\r\n            c.hitpoints,\r\n            c.specialpoints,\r\n            c.experience\r\n        );\r\n    }\r\n\r\n    function sqrt(uint256 x) internal pure returns (uint256 y) {\r\n        uint256 z = (x + 1) / 2;\r\n        y = x;\r\n        while (z < y) {\r\n            y = z;\r\n            z = (x / z + z) / 2;\r\n        }\r\n    }\r\n}",
  "sourcePath": "C:/projects/projectpixel-eth-react/contracts/PixelCharacterGeneratorV2.sol",
  "compiler": {
    "name": "solc",
    "version": "0.7.6+commit.7338295f.Emscripten.clang"
  },
  "schemaVersion": "3.3.4",
  "updatedAt": "2021-04-17T20:27:30.212Z",
  "networkType": "ethereum",
  "devdoc": {
    "kind": "dev",
    "methods": {
      "approve(address,uint256)": {
        "details": "See {IERC721-approve}."
      },
      "balanceOf(address)": {
        "details": "See {IERC721-balanceOf}."
      },
      "baseURI()": {
        "details": "Returns the base URI set via {_setBaseURI}. This will be automatically added as a prefix in {tokenURI} to each token's URI, or to the token ID if no specific URI is set for that token ID."
      },
      "burn(uint256)": {
        "details": "Burns `tokenId`. See {ERC721-_burn}. Requirements: - The caller must own `tokenId` or be an approved operator."
      },
      "getApproved(uint256)": {
        "details": "See {IERC721-getApproved}."
      },
      "getRoleAdmin(bytes32)": {
        "details": "Returns the admin role that controls `role`. See {grantRole} and {revokeRole}. To change a role's admin, use {_setRoleAdmin}."
      },
      "getRoleMember(bytes32,uint256)": {
        "details": "Returns one of the accounts that have `role`. `index` must be a value between 0 and {getRoleMemberCount}, non-inclusive. Role bearers are not sorted in any particular way, and their ordering may change at any point. WARNING: When using {getRoleMember} and {getRoleMemberCount}, make sure you perform all queries on the same block. See the following https://forum.openzeppelin.com/t/iterating-over-elements-on-enumerableset-in-openzeppelin-contracts/2296[forum post] for more information."
      },
      "getRoleMemberCount(bytes32)": {
        "details": "Returns the number of accounts that have `role`. Can be used together with {getRoleMember} to enumerate all bearers of a role."
      },
      "grantRole(bytes32,address)": {
        "details": "Grants `role` to `account`. If `account` had not been already granted `role`, emits a {RoleGranted} event. Requirements: - the caller must have ``role``'s admin role."
      },
      "hasRole(bytes32,address)": {
        "details": "Returns `true` if `account` has been granted `role`."
      },
      "isApprovedForAll(address,address)": {
        "details": "See {IERC721-isApprovedForAll}."
      },
      "name()": {
        "details": "See {IERC721Metadata-name}."
      },
      "ownerOf(uint256)": {
        "details": "See {IERC721-ownerOf}."
      },
      "renounceRole(bytes32,address)": {
        "details": "Revokes `role` from the calling account. Roles are often managed via {grantRole} and {revokeRole}: this function's purpose is to provide a mechanism for accounts to lose their privileges if they are compromised (such as when a trusted device is misplaced). If the calling account had been granted `role`, emits a {RoleRevoked} event. Requirements: - the caller must be `account`."
      },
      "revokeRole(bytes32,address)": {
        "details": "Revokes `role` from `account`. If `account` had been granted `role`, emits a {RoleRevoked} event. Requirements: - the caller must have ``role``'s admin role."
      },
      "safeTransferFrom(address,address,uint256)": {
        "details": "See {IERC721-safeTransferFrom}."
      },
      "safeTransferFrom(address,address,uint256,bytes)": {
        "details": "See {IERC721-safeTransferFrom}."
      },
      "setApprovalForAll(address,bool)": {
        "details": "See {IERC721-setApprovalForAll}."
      },
      "supportsInterface(bytes4)": {
        "details": "See {IERC165-supportsInterface}. Time complexity O(1), guaranteed to always use less than 30 000 gas."
      },
      "symbol()": {
        "details": "See {IERC721Metadata-symbol}."
      },
      "tokenByIndex(uint256)": {
        "details": "See {IERC721Enumerable-tokenByIndex}."
      },
      "tokenOfOwnerByIndex(address,uint256)": {
        "details": "See {IERC721Enumerable-tokenOfOwnerByIndex}."
      },
      "tokenURI(uint256)": {
        "details": "See {IERC721Metadata-tokenURI}."
      },
      "totalSupply()": {
        "details": "See {IERC721Enumerable-totalSupply}."
      },
      "transferFrom(address,address,uint256)": {
        "details": "See {IERC721-transferFrom}."
      }
    },
    "version": 1
  },
  "userdoc": {
    "kind": "user",
    "methods": {},
    "version": 1
  }
}